:020000020000FC
:200000004080306F0000000000000000000000000000000000000000000000000000000081
:20000800FC0101130011202300512223006124230071262300A1282300B12A2300C12C2381
:2000100000D12E2302E1202302F12223030124230311262303C1282303D12A2303E12C2345
:2000180003F12E2334202573341025F334302673144000EF341510730001208300412283A5
:200020000081230300C1238301012503014125830181260301C1268302012703024127836E
:200028000281280302C1288303012E0303412E8303812F0303C12F8304010113302000736A
:20003000FD01011302112623028124230301041300000013344027F3FEF42023304027F3FD
:20003800FEF42223FE042703FE44278300F777B30107D793FCF42A23FC042E23001007938E
:20004000FCF42C23FD442703FD84278300F777B306078263000317B7DCC78713FDC427833F
:200048000037979300F707B30007A703000317B7DCC78693FDC427830037979300F687B34C
:200050000047A78300078513000700E700000013344027F3FEF42423304027F3FEF42623F3
:20005800FE842703FEC4278300F777B30107D7930200006FFD84278300179793FCF42C23C1
:20006000FDC4278300178793FCF42E23F79FF06FFCF42A23FD442783F60790E30000001303
:200068000000001302C12083028124030301011300008067FD01011302112623028124231E
:2000700003010413FCA42E23FCB42C23FCC42A23FDC42703800007B700F777B3FEF42423D5
:20007800FDC42703800007B7FFF7C79300F777B3FEF42623FE84278308078863FEC4270381
:200080000030079304F70063FEC427030070079306F71263000317B7D5C7A78306078A633F
:2000880000000013000317B7D5C7A783FD442603FD842583FDC42503000780E700000013B1
:200090000500006F000317B7D587A7830407866300000013000317B7D587A783FD442603BD
:20009800FD842583FDC42503000780E7000000130280006FFEC4270300F0079302E7F26310
:2000A000E41FF0EF01C0006F001000730180006F000000130100006F000000130080006F36
:2000A80000000013FD8427830007851302C12083028124030301011300008067F701011340
:2000B000081126230881242309010413F6A42E23F6B42C23F6C42A23000317B7DBC7A703D5
:2000B800FEE42623000007130002B7B75A078593F7C4250317D050EFF8A42223F84427832A
:2000C00000079C630002B7B75A4785134A0070EFFFF0079309C0006FF8840793F84426038C
:2000C800064005930007851332C050EFF8840793F84426030640059300078513318050EF82
:2000D000F80420230380006FF804278300379793F784270300F707B3F8840713000786134C
:2000D8000002B7B75BC78593000705130B1070EFF804278300178793F8F42023F804270399
:2000E000F744278302F75063F8840793F844260306400593000785132BC050EF00050793AE
:2000E800FA0794E3F84425034E1040EFF804278300078713000317B7FEC42683DBC7A78340
:2000F00000F6C7B30000069300078463179070EF0007051308C1208308812403090101139A
:2000F80000008067FD0101130281262303010413FCA42E23FCB42C23FCC42A23FCD42823F0
:20010000FE0424230400006FFE84278300379793FDC4270300F707B3FE84270300371713ED
:20010800FD84268300E686B30007A7030047A78300E6A02300F6A223FE84278300178793AB
:20011000FEF42423FE842703FD042783FAF74EE3FE0426230480006FFEC427830037979312
:20011800FDC4270300F707B3FEC42683FD04270300E6873300371713FD84268300E686B34B
:200120000007A7030047A78300E6A02300F6A223FEC4278300178793FEF42623FEC4270375
:20012800FD442783FAF74AE3000000130000001302C124030301011300008067FD0101138D
:20013000021126230281242303010413FCA42E23FCB42C23FCC42A230002B7B75C87859306
:20013800FDC4250378C050EFFEA42623FEC4278300079A630002B7B75A4785132B0070EFB9
:2001400005C0006FFE0424230400006FFE84278300379793FD84270300F707B30007A70315
:200148000047A78300070613000786930002B7B75CC78593FEC42503784050EFFE8427832E
:2001500000178793FEF42423FE842703FD442783FAF74EE3FEC42503331040EF02C12083AA
:20015800028124030301011300008067FB0101130411262304812423049122230521202361
:2001600003312E2305010413FCA42623FCB42423FCC42223FCD42023FAE42E23FAF42C2379
:20016800FB042A23FC842703FBC4278300F707B3FFF7879301F7D71300F707B34017D79303
:20017000FCF42C23FC0428231A80006FFD04278300379793FB84270300F707B30007A023AC
:200178000007A223FD04278300379793FB44270300F707B30007A0230007A223FC042A2392
:200180001580006FFD04278300179713FD44278340F707B3FCF42E23FDC427831207C86323
:20018800FDC42703FC84278312F75263FD04278300379793FB84270300F707B30007A9036B
:200190000047A983FDC4278300379793FCC4270300F707B30007A7030047A783FD44268369
:2001980000369693FC44260300D606B30006A6030046A6830007051300078593011220EF72
:2001A00000050713000587930007061300078693FD04278300379793FB84270300F704B35E
:2001A800000905130009859350C210EF000507130005879300E4A02300F4A223FD0427839B
:2001B00000379793FB44270300F707B30007A9030047A983FDC4278300379793FCC42703D8
:2001B80000F707B30007A7030047A783FD44268300369693FC04260300D606B30006A603A4
:2001C0000046A6830007051300078593780220EF000507130005879300070613000786936B
:2001C800FD04278300379793FB44270300F704B3000905130009859347C210EF000507138B
:2001D0000005879300E4A02300F4A223FD44278300178793FCF42A23FD442703FBC4278363
:2001D800EAF742E3FD04278300178793FCF42823FD042703FD842783E4F74AE30000001379
:2001E0000000001304C1208304812403044124830401290303C1298305010113000080674A
:2001E800810101137E1126237E8124237E9122237F2120237D312E237F010413FFFF92B72F
:2001F000AA02829300510133FFFF87B7FE078793008787B32CA7AE23FFFF87B7FE0787938E
:2001F800008787B32CB7AC23FFFF87B7FE078793008787B32CC7AA23FFFF87B7FE0787933D
:20020000008787B32CD7A823000317B7DBC7A703FCE42E2300000713FFFF87B7FE0787938C
:20020800008787B32E07A4230880006FFFFF87B7FE078793008787B32E87A78300379793C6
:20021000FFFF8737FE070713008707332DC7270300F70733FFFF87B7FE078793008787B3C7
:200218002E87A783001797930007260300472683FFFF8737FE070713008707330037979389
:2002200000F707B32EC7AC232ED7AE23FFFF87B7FE078793008787B3FFFF8737FE0707137C
:20022800008707332E872703001707132EE7A423FFFF87B7FE07879300878733FFFF87B731
:20023000FE078793008787B32E8727032D87A783F4F74EE3FFFF87B7FE078793008787B3D9
:200238002E07A6232040006FFFFF87B7FE078793008787B32EC7A78300379793FFFF873781
:20024000FE070713008707332D07270300F707B30007A0230007A223FFFF87B7FE078793BE
:20024800008787B32E07A8231840006FFFFF87B7FE078793008787B3FFFF8737FE07071317
:20025000008706B3FFFF8737FE070713008707332EC6A6832F07270340E687332EE7AA2373
:20025800FFFF87B7FE078793008787B32F47A7831007CC63FFFF87B7FE078793008787B368
:200260002D87A78300179793FFFF8737FE070713008707332F4727030EF75863FFFF87B727
:20026800FE078793008787B32EC7A78300379793FFFF8737FE070713008707332D0727031C
:2002700000F707B30007A9030047A983FFFF87B7FE07879300878733FFFF87B7FE078793A0
:20027800008787B32F47A7830037979300F707B32F87A7032FC7A783FFFF86B7FE0686931B
:20028000008686B32F06A68300369693FFFF8637FE060613008606332D46260300D606B320
:200288000006A6030046A683000705130007859345C220EF00050713000587930007061386
:2002900000078693FFFF87B7FE078793008787B32EC7A78300379793FFFF8737FE070713B7
:20029800008707332D07270300F704B30009051300098593140210EF0005071300058793E4
:2002A00000E4A02300F4A223FFFF87B7FE078793008787B3FFFF8737FE0707130087073326
:2002A8002F072703001707132EE7A823FFFF87B7FE078793008787B32F07A70300B007937F
:2002B000E6E7D6E3FFFF87B7FE078793008787B3FFFF8737FE070713008707332EC72703D1
:2002B800001707132EE7A623FFFF87B7FE078793008787B32D87A78300179793FFFF873720
:2002C000FE070713008707332EC72703DCF74EE300000013000317B7FDC42703DBC7A78380
:2002C80000F747B30000071300078463218070EF000072B756028293005101337EC1208320
:2002D0007E8124037E4124837E0129037DC129837F01011300008067F90101130611262304
:2002D8000681242307010413FAA42623FAB42423FAC42023FAD42223F8E42E23F8F42C23C1
:2002E000FA042C233B80006FF9C4278301F7D71300F707B34017D79340F007B30007871341
:2002E800FB84278300F707B30007D46300000793FCF42023F9C4278301F7D71300F707B317
:2002F0004017D79300078713FB84278300F707B3FA84270302E7D263F9C4278301F7D713A3
:2002F80000F707B34017D79300078713FB84278300F707B300C0006FFA842783FFF7879392
:20030000FCF42223FC042423FC042623FC04278300379793FAC4270300F707B30007A703C3
:200308000047A783FCE42823FCF42A23FC04278300379793FAC4270300F707B30007A703A7
:200310000047A783FCE42C23FCF42E23FC042783FAF42E230F40006FFBC42783003797937B
:20031800FAC4270300F707B30007A7030047A7830007061300078693FC842503FCC42583BA
:20032000735200EF0005071300058793FCE42423FCF42623FBC4278300379793FAC42703B9
:2003280000F707B30007A7030047A7830007061300078693FD042503FD4425830D0220EF72
:20033000000507930207D263FBC4278300379793FAC4270300F707B30007A7030047A7834B
:20033800FCE42823FCF42A23FBC4278300379793FAC4270300F707B30007A7030047A783B8
:200340000007061300078693FD842503FDC42583779210EF0005079302F05263FBC4278394
:2003480000379793FAC4270300F707B30007A7030047A783FCE42C23FCF42E23FBC42783A0
:2003500000178793FAF42E23FBC42703FC442783F0E7D4E3FC442703FC04278340F707B3B7
:2003580000178793000785132A8230EF00050713000587930007061300078693FC842503C4
:20036000FCC425836F8210EF0005071300058793FCE42423FCF42623FC842603FCC4268375
:20036800FD042503FD442583009220EF0005071300058793FA042603FA4426830007051357
:20037000000785930C8220EF00050713000587930007061300078693FC842503FCC4258323
:200378005D5200EF0005071300058793FEE42023FEF42223FD842603FDC42683FC84250371
:20038000FCC425837AC220EF0005071300058793FA042603FA442683000705130007859320
:2003880006C220EF00050713000587930007061300078693FC842503FCC42583774220EF28
:200390000005071300058793FEE42423FEF42623FB84278300379793FAC4270300F707B388
:200398000007A7030047A7830007061300078693FE042503FE442583715210EF000507936E
:2003A0000207D463FB84278300379793F984270300F706B3FE042703FE44278300E6A0235B
:2003A80000F6A22308C0006FFB84278300379793FAC4270300F707B30007A7030047A783FE
:2003B0000007061300078693FE842503FEC425835B9210EF0005079302F05463FB8427837C
:2003B80000379793F984270300F706B3FE842703FEC4278300E6A02300F6A2230340006F3F
:2003C000FB84278300379793FAC4270300F707B3FB84270300371713F984268300E686B3AB
:2003C8000007A7030047A78300E6A02300F6A223FB84278300178793FAF42C23FB8427034F
:2003D000FA842783C4F742E3000000130000001306C12083068124030701011300008067C4
:2003D800FB0101130411262304812423052122230531202305010413FCA42623FCB42423EA
:2003E000FCC42223FCD42023FAE42C23FAF42E23FB842703FBC42783FEE42423FEF4262303
:2003E80000A00793FCF42E23FC0427830037979300078613FC842583FC442503338060EF3D
:2003F000FC042A230F00006FFD44278300379793FCC4270300F707B30007A7030047A78319
:2003F80000070913800006B7FFF6C69300D7F9B30009061300098693FE842503FEC425835C
:2004000058D210EF000507930A07D063FD442703FDC4278340F707B30007D4630000079331
:20040800FEF42023FD442703FDC4278300F707B3FC04270300E7DA63FD442703FDC42783F4
:2004100000F707B300C0006FFC042783FFF78793FEF42223FE042783FCF42C230400006F9D
:20041800FD84278300379793FCC4270300F707B3FD84270300371713FC44268300E686B389
:200420000007A7030047A78300E6A02300F6A223FD84278300178793FCF42C23FD842703F0
:20042800FE442783FAE7DEE3FD44278300178793FCF42A23FD442703FC042783F0F746E3A8
:20043000000000130000001304C1208304812403044129030401298305010113000080674F
:20043800FB01011304112623048124230491222305010413FAA42E23FAB42C23FAC428237E
:20044000FAD42A23FC042823FC042A23FC0424230780006FFC84278300379793FBC4270338
:2004480000F707B30007A7030047A783FC84268300369693FBC4260300D606B30006A60313
:200450000046A6830007051300078593541210EF00050713000587930007061300078693FC
:20045800FD042503FD44258324D200EF0005071300058793FCE42823FCF42A23FC842783BD
:2004600000178793FCF42423FC842703FB842783F8F742E3FB842503679220EF000507135F
:20046800000587930007061300078693FD042503FD4425832C8210EF000507130005879318
:20047000FCE42823FCF42A230002C7B79507A6039547A683FB042503FB4425832A0210EF01
:20047800000507130005879300070613000786930002C7B79507A7039547A78300070513FB
:2004800000078593475260EF00050713000587930007061300078693FD042503FD442583C5
:2004880025C210EF0005071300058793FCE42C23FCF42E23FD842503FDC425835CD260EF31
:20049000FEA42023FEB4222300000513691090EF00050713000587930007079300078513E2
:2004980055C060EFFC0426230F40006F564060EF0005079300078513599220EF000507139D
:2004A000000587930002C6B79586A60395C6A68300070513000785931E4210EF000507139A
:2004A8000005879300070613000786930007051300078593101200EF000507130005879348
:2004B00000070513000785930002C7B79607A6039647A6832DC220EF0005071300058793E6
:2004B8000007061300078693FE042503FE44258339D210EF0005071300058793FEE424235F
:2004C000FEF42623FCC4278300379793FBC4270300F707B30007A7030047A783FCC42683F1
:2004C80000369693FBC4260300D604B3FE842603FEC426830007051300078593079200EF64
:2004D000000507130005879300E4A02300F4A223FCC4278300178793FCF42623FCC42703B0
:2004D800FB842783F0F744E3000000130000001304C120830481240304412483050101138D
:2004E00000008067FC01011302112E2302812C2303212A230331282304010413FCA42623D9
:2004E800FCB42423FCC42223FC042C23FC042E23FE042023FE042223FC042A231040006FC0
:2004F000FD44278300379793FCC4270300F707B30007A7030047A783FD442683003696939A
:2004F800FC84260300D606B30006A6030046A68300070513000785931B8220EF0005071385
:2005000000058793FEE42423FEF42623FE842603FEC42683FE842503FEC42583271210EFF6
:2005080000050713000587930007061300078693FD842503FDC4258377C200EF00050713FC
:2005100000058793FCE42C23FCF42E23FD44278300379793FCC4270300F707B30007A703A4
:200518000047A783FD44268300369693FCC4260300D606B30006A6030046A6830007051354
:2005200000078593209210EF00050713000587930007061300078693FE042503FE44258359
:20052800714200EF0005071300058793FEE42023FEF42223FD44278300178793FCF42A231E
:20053000FD442703FC442783EEF74CE3FD842503FDC42583335260EF00050913000589931A
:20053800FE042503FE442583321260EF00050713000587930007061300078693000905135D
:2005400000098593779200EF000507130005879300070513000785930002C7B79687A603C0
:2005480096C7A683169210EF0005071300058793000705130007859303C1208303812403D8
:2005500003412903030129830401011300008067FC01011302112E2302812C230401041308
:20055800FCA42623FCB42423FCC42223FC042C23FC042E23FE042023FE042223FC042A2325
:200560001040006FFD44278300379793FC84270300F707B30007A7030047A783FD44268309
:2005680000369693FCC4260300D606B30006A6030046A68300070513000785937F5210EF70
:200570000005071300058793FEE42423FEF42623FD44278300379793FCC4270300F707B3E2
:200578000007A7030047A783FD44268300369693FCC4260300D606B30006A6030046A68362
:200580000007051300078593085210EF00050713000587930007061300078693FD8425039D
:20058800FDC42583590200EF0005071300058793FCE42C23FCF42E23FE842603FEC42683DC
:20059000FE842503FEC42583045210EF00050713000587930007061300078693FE0425033A
:20059800FE442583550200EF0005071300058793FEE42023FEF42223FD442783001787935D
:2005A000FCF42A23FD442703FC442783EEF74CE3FE042603FE442683FD842503FDC425836D
:2005A8005DD200EF000507130005879300070513000785936E0260EF00050713000587939C
:2005B0000002C6B79506A6039546A68300070513000785937B8210EF0005071300058793EC
:2005B800000705130007859303C12083038124030401011300008067FB0101130411262365
:2005C0000481242305010413FAA42E23FAB42C23FAC42A23FAD42823FC042823FC042A238A
:2005C800FC042C23FC042E23FC0426231280006FFCC4278300379793FB44270300F707B344
:2005D0000007A7030047A783FCC4268300369693FBC4260300D606B30006A6030046A6838C
:2005D8000007051300078593649210EF0005071300058793FEE42023FEF42223FCC42783CC
:2005E00000379793FB84270300F707B30007A7030047A783FCC4268300369693FBC426036E
:2005E80000D606B30006A6030046A68300070513000785935FD210EF00050713000587939A
:2005F000FEE42423FEF42623FE842603FEC42683FE842503FEC425836B4210EF0005071392
:2005F800000587930007061300078693FD042503FD4425833C0200EF000507130005879307
:20060000FCE42823FCF42A23FE042603FE442683FE042503FE442583674210EF0005071381
:20060800000587930007061300078693FD842503FDC42583380200EF0005071300058793FA
:20061000FCE42C23FCF42E23FCC4278300178793FCF42623FCC42703FB042783ECF74AE3E3
:20061800FD842603FDC42683FD042503FD44258340D200EF0005071300058793000705133E
:2006200000078593510260EF00050713000587930002C6B79506A6039546A68300070513D5
:20062800000785935E8210EF0005071300058793000705130007859304C120830481240324
:200630000501011300008067FC01011302112E2302812C2304010413FCA42623FCB4242366
:20063800FCC42223FE042023FE042223FC042E2309C0006FFDC4278300379793FCC42703D2
:2006400000F707B30007A7030047A783FDC4268300369693FC84260300D606B30006A60317
:200648000046A6830007051300078593485210EF0005071300058793FEE42423FEF42623AA
:20065000FE842603FEC42683FE842503FEC4258353C210EF000507130005879300070613EE
:2006580000078693FE042503FE442583248200EF0005071300058793FEE42023FEF422231F
:20066000FDC4278300178793FCF42E23FDC42703FC442783F6F740E3FC442503674220EF98
:2006680000050713000587930007061300078693FE042503FE4425832C5200EF0005071354
:2006700000058793000705130007859303C12083038124030401011300008067FD010113E9
:200678000281262303010413FCA42E23FCB42C23FCC42A23FCD42823FE0426230480006F25
:20068000FEC42703FD04278300F707B300379793FDC4270300F707B3FEC4270300371713C8
:20068800FD84268300E686B30007A7030047A78300E6A02300F6A223FEC4278300178793E6
:20069000FEF42623FD442703FD04278340F707B3FEC42703FAF746E30000001300000013DC
:2006980002C124030301011300008067FD0101130281262303010413FCA42E23FCB42C2370
:2006A000FCC42A23FE04242308C0006FFE0426230440006FFEC427830017879300379793B1
:2006A800FDC4270300F707B3FEC4270300371713FDC4268300E686B30007A7030047A7839E
:2006B00000E6A02300F6A223FEC4278300178793FEF42623FD842783FFF78793FEC42703C7
:2006B800FAF74AE3FD842703200007B7FFF7879300F707B300379793FDC4270300F707B3BD
:2006C0000007A0230007A223FE84278300178793FEF42423FE842703FD442783F6F748E33F
:2006C800000000130000001302C124030301011300008067810101137E1126237E8124234F
:2006D0007E9122237F2120237D312E237D412C237D512A237D6128237D7126237D81242307
:2006D8007D9122237DA120237BB12E237F010413FFFB92B78802829300510133000317B702
:2006E000DBC7A703FAE42E230000071300010793FFFB8737094707130087073300F72023AD
:2006E8002F4030EF00050713000317B7D4E7A023FFFB87B7FC078793008784B3FFFB87B7AB
:2006F00035878793FC07879300878733000017B7E1078613000705930002B7B75D4785131C
:2006F800EDCFE0EF16A4A623FFFB87B7FC078793008787B31407AC230D80006FFFFB87B7A0
:20070000FC07879300878733FFFB87B7FC078793008787B31587A7830037979300F707B38D
:200708003587A60335C7A683FFFBF7B7FC07879300878733FFFB87B7FC078793008787B32B
:200710001587A7830037979300F707B33CC7AC233CD7AE23FFFB87B7FC07879300878733A5
:20071800FFFB87B7FC078793008787B31587A7830037979300F707B33587A60335C7A68349
:20072000FFFC67B7FC07879300878733FFFB87B7FC078793008787B31587A7830037979305
:2007280000F707B344C7AC2344D7AE23FFFB87B7FC07879300878733FFFB87B7FC0787934F
:20073000008787B31587A7830017879314F72C23FFFB87B7FC07879300878733FFFB87B7C9
:20073800FC078793008787B31587270316C7A783F0F746E3FFFB87B7FC0787930087873350
:20074000FFFBF7B73D878793FC078793008787B316C72603000785930002B7B75E078513A3
:20074800F9CFE0EF0002C7B79707A6039747A683FFFB87B7FC07879300878733FFFBF7B7EE
:200750003D878793FC078793008787B316C7258300078513B8CFF0EFFFFB87B7FC078793EE
:2007580000878733FFFBF7B73D878793FC078793008787B316C72603000785930002B7B747
:200760005E878513F38FE0EFFFFB87B7FC078793008787330002B7B77D0787931D87071349
:200768000007869306000793000786130006859300070513540050EFFFFB87B7FC078793EC
:20077000008787330002C7B7830787932387071300078693060007930007861300068593C2
:2007780000070513510050EFFFFB87B7FC078793008787330002C7B7890787932987071328
:2007800000078693060007930007861300068593000705134E0050EFFFFB87B7FC078793DA
:20078800008787330002C7B78F0787932F8707130007869306000793000786130006859392
:20079000000705134B0050EFFFFB87B7FC078793008787B316C7A78300B7871301F7579350
:2007980000E787B34017D79300078693FFF6879300078713FFFB87B7FC078793008787B379
:2007A00016E7A8230006879300078B1300000B9301AB5793006B99930137E9B3006B191376
:2007A8000006879300078C1300000C9301AC5793006C9A930157EAB3006C1A1300068793EE
:2007B00000379713FFFB87B7FC078793008786B300F707930047D7930047979340F101331B
:2007B80000010793007787930037D7930037979316F6AA23FFFB87B7FC078793008787B304
:2007C00016C7A78300B7871301F7579300E787B34017D79300078693FFF68793000787132D
:2007C800FFFB87B7FC078793008787B316E7AC2300068793FFFB85370D050713008707336C
:2007D00000F720230D450793008787B30007A0230D050793008787B30007A5830047A603CC
:2007D8000005879301A7D7930006071300671D9301B7EDB30005879300679D1300068793EB
:2007E0000C8507130087073300F720230CC50793008787B30007A0230C850793008787B371
:2007E8000007A5830047A6030005879301A7D793000607130067171310C50813008808333D
:2007F00000E8202310C50713008707330007270300E7E7B310C507130087073300F7202372
:2007F800000587930067979300050613108607130087073300F72023000687930037971367
:20080000FFFB87B7FC078793008787B300F70713004757130047171340E10133000107131F
:2008080000770713003757130037171316E7AE23FFFB87B7FC078793008787B316C7A78352
:2008100000B7879301F7D71300F707B34017D79300B7879301F7D71300F707B34017D7937E
:2008180000078713FFF7079300078693FFFB87B7FC078793008787B318D7A0230007079306
:20082000000605130C050693008686B300F6A0230C450793008787B30007A0230C05079357
:20082800008787B30007A5830047A6030005879301A7D79300060693006696931045081301
:200830000088083300D8202310450693008686B30006A68300D7E7B310450693008686B3D0
:2008380000F6A023000587930067979310050693008686B300F6A023000707930B85069347
:20084000008686B300F6A0230BC50793008787B30007A0230B850793008787B30007A58311
:200848000047A6030005879301A7D79300060693006696930FC508130088083300D8202374
:200850000FC50693008686B30006A68300D7E7B30FC50693008686B300F6A02300058793B8
:2008580000679793000506130F860693008686B300F6A0230007079300379713FFFB87B771
:20086000FC078793008787B300F70713004757130047171340E10133000107130077071366
:20086800003757130037171318E7A223FFFB87B7FC078793008787B316C7A78300B78793BC
:2008700001F7D71300F707B34017D79300B7879301F7D71300F707B34017D793FFF787135F
:2008780000070693FFFB8737FC0707130087073318D7242300078713000605130B0506938C
:20088000008686B300E6A0230B45071300870733000720230B0507130087073300072583E1
:20088800004726030005871301A7571300060693006696930F4508130088083300D82023B4
:200890000F450693008686B30006A68300D767330F450693008686B300E6A0230005871308
:20089800006717130F050693008686B300E6A023000787130A850693008686B300E6A02369
:2008A0000AC5071300870733000720230A850713008707330007258300472603000587131C
:2008A80001A7571300060693006696930EC508130088083300D820230EC50693008686B3F9
:2008B0000006A68300D767330EC50693008686B300E6A02300058713006717130E85069358
:2008B800008686B300E6A02300379713FFFB87B7FC078793008787B300F7071300475713FF
:2008C0000047171340E101330001071300770713003757130037171318E7A623FFFB87B7A4
:2008C800FC078793008787B3FFFCD7374D870713FC070713008705B3FFFBF7373D870713D9
:2008D000FC0707130087073300B0069316C7A60300070513890FE0EFFFFB87B7FC07879380
:2008D800008787B316C7A78300B78713FFFCD7B74D878793FC078793008787B30007061372
:2008E000000785930002B7B75F878513930FE0EFFFFB87B7FC078793008787B316C7A7835D
:2008E80000B78593FFFB87B7FC07879300878733FFFB87B7FC078793008787B3FFFB86B73E
:2008F00023868693FC068693008688B3FFFB86B71D868693FC06869300868633FFFCD6B775
:2008F8004D868693FC0686930086853317C728031747A78300C0071300088693970FE0EF9A
:20090000FFFB87B7FC078793008787B316C7A78300B7879301F7D71300F707B34017D79395
:2009080000078713FFFB87B7FC078793008787B3000706131747A5830002B7B760C7851343
:2009100087CFE0EFFFFB87B7FC078793008787B316C7A78300B7879301F7D71300F707B321
:200918004017D79300078613FFFD57B78B878793FC07879300878733FFFB87B7FC07879375
:20092000008787B300B00693000705931747A503F55FD0EFFFFB87B7FC078793008787B3DF
:2009280016C7A78300B7879301F7D71300F707B34017D79300B78713FFFD57B78B878793FC
:20093000FC078793008787B300070613000785930002B7B761478513FE5FD0EF1B9020EF04
:2009380000050713000317B7D2E7AC23FFFB87B7FC078793008787B31407AE230A80006F2C
:20094000FFFB87B7FC078793008787B316C7A78300B7879301F7D71300F707B34017D79355
:2009480000B78593FFFB87B7FC07879300878733FFFB87B7FC078793008787B3FFFB86B7DD
:2009500023868693FC068693008688B3FFFB86B71D868693FC06869300868633FFFD56B793
:200958008B868693FC0686930086853318C728031847A78300C0071300088693FF1FD0EF91
:20096000FFFB87B7FC078793008787B3FFFB8737FC0707130087073315C727030017071394
:2009680014E7AE23FFFB87B7FC078793008787B315C7A70301300793F4E7D4E30D9020EFFE
:2009700000050713000317B7E8E7A423000317B7E887A703000317B7D387A78340F707B3B1
:20097800000785132E5210EF00050713000587930002C6B79786A60397C6A6830007051319
:20098000000785936791F0EF0005071300058793000316B7D4E6A823D4F6AA23000317B766
:20098800D507A703D547A7830002C6B79806A6039846A68300070513000785936411F0EF24
:200990000005071300058793000316B7D4E6A823D4F6AA23000317B7D507A703D547A78380
:2009980000070613000786930002B7B761C785137C1040EFFFFB87B7FC078793008787B3FE
:2009A00016C7A78300B7879301F7D71300F707B34017D79300B7879301F7D71300F707B3A7
:2009A8004017D79300078713FFFB87B7FC078793008787B3000706131847A5830002B7B7A0
:2009B00064C78513DF9FD0EFFFFB87B7FC078793008787B316C7A78300B7879301F7D71357
:2009B80000F707B34017D79300B7879301F7D71300F707B34017D79300078613FFFDC7B76E
:2009C000C9878793FC07879300878733FFFB87B7FC078793008787B300B006930007059351
:2009C8001847A503AB8FF0EF76C020EF00050713000317B7D2E7AC23FFFB87B7FC078793DD
:2009D000008787B31607A0230980006FFFFB87B7FC078793008787B316C7A78300B7879380
:2009D80001F7D71300F707B34017D79300B7879301F7D71300F707B34017D793FF57871396
:2009E000FFFEA7B745878793FC078793008786B3FFFB87B729878793FC078793008786337A
:2009E800FFFDC7B7C9878793FC078793008787B30007059300078513FE9FD0EFFFFB87B75B
:2009F000FC078793008787B3FFFB8737FC07071300870733160727030017071316E7A0233B
:2009F800FFFB87B7FC078793008787B31607A70303100793F4E7DCE369C020EF0005071364
:200A0000000317B7E8E7A423000317B7E887A703000317B7D387A78340F707B300078513A0
:200A08000A9210EF00050713000587930002C6B79786A60397C6A6830007051300078593EC
:200A100043D1F0EF0005071300058793000316B7D4E6A823D4F6AA23000317B7D507A70352
:200A1800D547A7830002C6B79886A60398C6A68300070513000785934051F0EF00050713DE
:200A200000058793000316B7D4E6A823D4F6AA23000317B7D507A703D547A78300070613EE
:200A2800000786930002B7B765478513585040EFFFFB87B7FC078793008787B316C7A783E6
:200A300000B7879301F7D71300F707B34017D79300B7879301F7D71300F707B34017D7935C
:200A3800FF57879300179713FFFEA7B745878793FC078793008787B300070613000785930F
:200A40000002B7B769C78513BB5FD0EFFFFB87B7FC078793008787B316C7A78300B7879397
:200A480001F7D71300F707B34017D79300B7879301F7D71300F707B34017D793FF578793A5
:200A500000179613FFFE37B707878793FC07879300878733FFFEA7B745878793FC07879377
:200A5800008787B300B00693000705930007851386CFF0EFFFFB87B7FC078793008787B3EC
:200A600016C7A78300B7879301F7D71300F707B34017D79300B7879301F7D71300F707B3E6
:200A68004017D793FF57879300179793FF578713FFFF27B783878793FC078793008786B32F
:200A7000FFFB87B729878793FC07879300878633FFFE37B707878793FC078793008787B396
:200A78000007059300078513DB9FD0EFFFFB87B7FC078793008787B3FFFF27378387071351
:200A8000FC0707130087073316C7A603000705930002B7B76A878513AA5FD0EFFFFB87B75A
:200A8800FC078793008787B300A0071318E7A823FFFB87B7FC078793008786B30002C7B757
:200A90009907A7039947A7831AE6A0231AF6A223FFFB87B7FC078793008787B316C7A7833D
:200A9800FFF7871300070693FFFB8737FC0707130087073318D72A2300078713FFFB8537E5
:200AA0000A050693008686B300E6A0230A45071300870733000720230A05071300870733C8
:200AA80000072583004726030005871301A7571300060693006696930E45081300880833FF
:200AB00000D820230E450693008686B30006A68300D767330E450693008686B300E6A0236C
:200AB80000058713006717130E050693008686B300E6A0230007871309850693008686B353
:200AC00000E6A02309C50713008707330007202309850713008707330007258300472603F2
:200AC8000005871301A7571300060693006696930DC508130088083300D820230DC50693F9
:200AD000008686B30006A68300D767330DC50693008686B300E6A0230005871300671713A4
:200AD8000D850693008686B300E6A02300379713FFFB87B7FC078793008787B300F7071363
:200AE000004757130047171340E101330001071300770713003757130037171318E7AC2303
:200AE8002F4020EF00050713000317B7D2E7AC23FFFB87B7FC078793008787B31607A22300
:200AF0000800006FFFFB87B7FC078793008787B3FFFB8737FC07071300870733FFFB86B78C
:200AF800FC068693008686B3FFFB8637FC060613008605B3FFFF263783860613FC0606135C
:200B0000008605331987A783190727031A06A6031A46A68316C5A583F41FD0EFFFFB87B7A4
:200B0800FC078793008787B3FFFB8737FC07071300870733164727030017071316E7A223DF
:200B1000FFFB87B7FC078793008787B31647A70303100793F6E7D8E323C020EF0005071352
:200B1800000317B7E8E7A423000317B7E887A703000317B7D387A78340F707B30007851387
:200B2000448210EF00050713000587930002C6B79786A60397C6A6830007051300078593A9
:200B28007DC1F0EF0005071300058793000316B7D4E6A823D4F6AA23000317B7D507A7030F
:200B3000D547A7830002C6B79886A60398C6A68300070513000785937A41F0EF000507139B
:200B380000058793000316B7D4E6A823D4F6AA23000317B7D507A703D547A78300070613D5
:200B4000000786930002B7B76B478513125040EFFFFB87B7FC078793008787B316C7A7830D
:200B480000379693FFFB87B7FC078793008787B3FFFF9737C1870713FC070713008707330B
:200B5000000686131987A583000705135A8040EFFFFB87B7FC078793008786B30002C7B761
:200B58009987A70399C7A7831AE6A4231AF6A623124020EF00050713000317B7D2E7AC23B0
:200B6000FFFB87B7FC078793008787B31607A4230800006FFFFB87B7FC078793008787B3EE
:200B6800FFFB8737FC070713008706B3FFFF9737C1870713FC07071300870633FFFB873795
:200B7000FC070713008705B3FFFF273783870713FC070713008705331A87A7031AC7A78357
:200B780016C6A6831985A583978FE0EFFFFB87B7FC078793008787B3FFFB8737FC070713B2
:200B800000870733168727030017071316E7A423FFFB87B7FC078793008787B31687A7037B
:200B880003100793F6E7D8E306C020EF00050713000317B7E8E7A423000317B7E887A703C3
:200B9000000317B7D387A78340F707B300078513278210EF00050713000587930002C6B7FB
:200B98009786A60397C6A683000705130007859360C1F0EF0005071300058793000316B7A5
:200BA000D4E6A823D4F6AA23000317B7D507A703D547A7830002C6B79886A60398C6A683AF
:200BA80000070513000785935D41F0EF0005071300058793000316B7D4E6A823D4F6AA2348
:200BB000000317B7D507A703D547A78300070613000786930002B7B76E478513754040EFA7
:200BB800FFFB87B7FC078793008787B316C7A78300B7879301F7D71300F707B34017D793DB
:200BC00000078713FFFB87B7FC078793008787B3000706131747A5830002B7B771C7851378
:200BC800D9CFD0EFFFFB87B7FC078793008787B316C7A78301F7D71300F707B34017D79335
:200BD00000078713FFFB87B7FC078793008787B30007061317C7A5830002B7B77247851367
:200BD800D5CFD0EFFFFB87B7FC078793008787B316C7A78301F7D71300F707B34017D79329
:200BE00000B7879301F7D71300F707B34017D79300078713FFFB87B7FC078793008787B319
:200BE800000706131847A5830002B7B772C78513D0CFD0EFFFFB87B7FC078793008787B391
:200BF00016C7A78301F7D71300F707B34017D79300B7879301F7D71300F707B34017D79365
:200BF80000078713FFFB87B7FC078793008787B30007061318C7A5830002B7B7734785133D
:200C0000CBCFD0EFFFFB87B7FC078793008787B316C7A78300B7879301F7D71300F707B3FA
:200C08004017D79300B7879301F7D71300F707B34017D793FF57879300279793FF57871335
:200C1000FFFF27B783878793FC078793008787B300070613000785930002B7B773C7851365
:200C1800C5CFD0EFFFFB87B7FC078793008787B316C7A78300B7879301F7D71300F707B3E8
:200C20004017D79300B7879301F7D71300F707B34017D793FF57879300279793FF5787131D
:200C2800FFFBF7B73D878793FC078793008787B300070613000785930002B7B774C78513C6
:200C3000BFCFD0EFFFFB87B7FC078793008787B316C7A78300B7879301F7D71300F707B3D6
:200C38004017D79300B7879301F7D71300F707B34017D793FF57879300279793FF57871305
:200C4000FFFB87B7FC078793008787B3000706131987A5830002B7B776078513BA0FD0EF89
:200C4800FFFB87B7FC078793008787B3FFFF9737C1870713FC0707130087073316C7A603E4
:200C5000000705930002B7B777078513B70FD0EFFFFB87B7FC078793008784B3FFFB87B78F
:200C5800FC078793008787B3FFFF9737C1870713FC070713008706B3FFFC67374587071394
:200C6000FC0707130087073316C7A6030006859300070513F34FE0EF1AA4A8231AB4AA239E
:200C6800FFFB87B7FC078793008784B3FFFB87B7FC078793008787B3FFFF9737C187071315
:200C7000FC070713008706B3FFFC673745870713FC0707130087073316C7A6030006859306
:200C7800000705139A0FE0EF1AA4AC231AB4AE23FFFB87B7FC078793008784B3FFFB87B74E
:200C8000FC078793008787B3FFFF9737C1870713FC070713008706B3FFFC6737458707136C
:200C8800FC0707130087073316C7A6030006859300070513B1CFE0EF1CA4A0231CB4A22344
:200C9000FFFB87B7FC078793008784B3FFFB87B7FC078793008787B3FFFF9737C1870713ED
:200C9800FC07071300870633FFFBF7373D870713FC070713008705B3FFFC6737458707137E
:200CA000FC0707130087073316C7A68300070513C68FE0EF1CA4A4231CB4A623FFFB87B7B5
:200CA800FC078793008784B3FFFB87B7FC078793008787B31B07A5031B47A58354D240EF92
:200CB0001CA4A8231CB4AA23FFFB87B7FC078793008787B300001737E7C7071318E7AE2300
:200CB800FFFB87B7FC078793008787B319C7A5830002B7B778078513338040EF399010EFCD
:200CC00000050713000317B7D4E7A223000317B7D447A703000317B7D407A78340F707B347
:200CC800000785135A5200EF00050713000587930002C6B79786A60397C6A68300070513AA
:200CD000000785931381F0EF0005071300058793000316B7D4E6A423D4F6A623000317B77F
:200CD800D487A703D4C7A78300070613000786930002B7B77A4785132B8040EF00000793B5
:200CE000FFFB873709470713008707330007210300078713000317B7FBC42683DBC7A78340
:200CE80000F6C7B30000069300078463199040EF00070513FFFB82B7090282930054013323
:200CF000000472B778028293005101337EC120837E8124037E4124837E0129037DC12983A0
:200CF8007D812A037D412A837D012B037CC12B837C812C037C412C837C012D037BC12D837E
:200D00007F01011300008067FFFFD297C182829330529073088002933002B07330401073AF
:200D080034401073000012B70802A00FFE028293FE029CE30002C1974DC1819300077117B3
:200D1000CE4101130002E3178F4303130002E397A3C383930003202300430313FE736CE365
:200D18000C8000EF0002A3170F4303130002A3970EC383930073786300032023004303130C
:200D2000FE736CE30002A2970D4282930002A3170CC303130002A3970C4383930062FC6351
:200D28000002A4830093A0230042829300438393FE62E8E30002A2170A4202130D8000EFB9
:200D30000000006FFE01011300812E2302010413FEA42623FEB42423FEC42223FE8427039E
:200D3800FEC4278302F70A630240006FFEC4270300470793FEF42623FE8427830047869384
:200D4000FED424230007270300E7A023FE842703FE442783FCF71CE30000001301C1240319
:200D48000201011300008067FF010113001126230081242301010413838186130002D7B711
:200D50005587859383818513F7DFF0EF2BC006130200059302000513F6DFF0EF0002D7B742
:200D5800558786130002B7B75A0785930002B7B75A078513F51FF0EF5E1000EF040010EF61
:200D60000000001300C12083008124030101011300008067FE01011300112E2300812C2312
:200D68000201041300000513074000EF000000130A4000EF0002C7B79A0786130002C7B77D
:200D70009A0785930002C7B79A0785132BC010EF72D000EF000047B755C785130A5010EFCB
:200D7800000317B7D607A703000317B7D647A683000317B7D687A7830007861300068593D6
:200D800000070513D30FE0EFFEA4262300100513259070EFFEC425030C5010EFFE01011304
:200D880000112E2300812C2302010413FEA4262353C010EF008007933007A073000000138B
:200D90000000001301C12083018124030201011300008067FE01011300112E2300812C23DF
:200D98000201041300000613000005930002D7B7580785131F0000EF0002D7B755878513D7
:200DA00054D000EF3E800793FEF42623000317B7D707A78300079A63000317B7FEC42703F3
:200DA800D6E7A8230080006F00000013000057B7D9878793FEF42423000317B7FE84270363
:200DB000D4E7AE230000001377C010EF0000061300000593000005136C0010EF0000001307
:200DB80001C12083018124030201011300008067FD010113021126230281242303010413BC
:200DC000FCA42E23FCB42C23FCC42A23FDC427830007A783FEF42623FEC4278302878713B0
:200DC800FDC427830087A78300078693FD442603FD8425830007051364C000EF000507936B
:200DD0000007851302C12083028124030301011300008067FD01011302112623028124231D
:200DD80003010413FCA42E23FCB42C23FCC42A23FDC427830007A783FEF42623FEC42783A0
:200DE00002878713FDC427830087A78300078693FD442603FD84258300070513015000EFA2
:200DE800000507930007851302C12083028124030301011300008067FD0101130211262330
:200DF0000281242303010413FCA42E23FDC427830007A783FEF42623FEC4278302878713A7
:200DF800FDC427830087A7830007859300070513428000EF000507930007851302C120832C
:200E0000028124030301011300008067FD010113021126230281242303010413FCA42E23E5
:200E0800FCB42C23FCC42A23FDC427830007A783FEF42623FEC4278302878793FD4426036E
:200E1000FD8425830007851343C000EF000507930007851302C120830281240303010113A2
:200E180000008067FD010113021126230281242303010413FCA42E23FCB42C23FCC42A2383
:200E2000FDC427830010071302E7A023FDC427830207A783FEF42623FDC427830007A783FC
:200E28000047879300078713FEC4278300F72023FD842503FD44258300000713FDC42683EC
:200E3000000047B792478613515000EFFDC427830207A223FDC4278300878713000317B70C
:200E3800D707A583FDC42683000047B7B5C78613000705130F9000EF000507930007DA6387
:200E4000FDC4278380000737FFF7471300E7A2230000001302C12083028124030301011332
:200E480000008067FA01011304812E2306010413FAA42623FAC42783FCF42223FC44278332
:200E50000007A783FCF42423FA042C23FC842783004787930007A783FCF42623FCC427836E
:200E5800FCF42823FD0427833007F7931C078E63FD0427831007F7930E078663000107B7B6
:200E6000FAF42E23FC4427830287A783001787937FF7F793FCF42A23FC44278302C7A7834B
:200E6800FD44270306F70263FC8427830007A783FCF42C23FD842783FAF42E23FBC42703B0
:200E7000000087B700F777B304078463FC4427830287A783FBC427030FF77713FC44268312
:200E780000F687B302E78C23FC4427830287A783001787937FF7F713FC44278302E7A423AA
:200E800000000013F81FF06F000000130080006F00000013FBC42703000107B704F764634A
:200E8800FC4427830207A783FFE7F713FC44278302E7A023FC4427830207A783FCF42E2349
:200E9000FC8427830047879300078713FDC4278300F72023FC842783004787930007A783B5
:200E9800FEF42023FD0427832007F793EE0780E3FD0427830107D793FCF4202305C0006FCD
:200EA000FC4427830347A783FC44270300F707B30000173700F707B38387C783FEF422232F
:200EA800FC842783FE44270300E7A023FC4427830347A783001787937FF7F713FC442783F1
:200EB00002E7AA2300100793FAF42C23FC042783FFF78793FCF42023FC04278300078C63F8
:200EB800FC4427830347A703FC4427830307A783F8F718E3FC042783E4078AE3FC44278348
:200EC0000207A783FFD7F713FC44278302E7A023FC4427830207A783FEF42423FC44278329
:200EC8000007A7830047879300078713FE84278300F72023FC842783004787930007A783B5
:200ED000FEF42623E09FF06F000000130000001305C124030601011300008067FD010113C2
:200ED8000281262303010413FCA42E23FDC42783FEF42023FE0427830007A7830047879344
:200EE0000007A783FEF42223FE442783FEF42423FE8427834007F79302078C63FE042783C4
:200EE8000207A7834007E793FEF42623FE0427830007A7830047879300078713FEC4278370
:200EF00000F72023FE0427830207A2230340006FFE0427830247A703800007B7FFC7C7937F
:200EF80002E7E063FE0427830247A78300178713FE04278302E7A223FE0427830247A78365
:200F0000000317B7D707A7830007851302C124030301011300008067FE01011300812E238B
:200F080002010413FEA42623FEB4242301C0006FFE842703000047B700F777B300078663E0
:200F1000FF5007930300006FFEC427830347A703FEC427830307A78300F70C63FEC4278394
:200F18000247A703FEC427830047A783FCF762E3000007930007851301C124030201011378
:200F200000008067FD0101130281262303010413FCA42E23FCB42C23FCC42A23FE700793CC
:200F2800FEF42423FD842703000077B7A017879300F70C63FD842703000077B7A0278793A6
:200F300006F702630AC0006FFDC427830047A703800007B7FFF7C79308F70663FD442783C9
:200F38000007A783FEF42623FEC427030010079300E7DE63FEC42703800007B7FFF7C793F5
:200F400000F70663FEC4278300C0006F800007B7FFE7C793FDC4270300F72223FE042423A8
:200F48000440006FFDC427830047A703800007B7FFF7C79302F70C63FDC427830247A70326
:200F5000FDC427830047A78300F737B30FF7F79300078713FD44278300E7A023FE042423B5
:200F580000C0006F000000130080006F00000013FE8427830007851302C124030301011368
:200F600000008067FC01011302112E2302812C2304010413FCA42623FCB42423FCC4222342
:200F6800FCD42023FC842783FCF428231280006FFCC427830287A783FCF42C23FCC427832A
:200F700002C7A783FCF42E23FD842703FDC4278300F76C63FD842703FDC4278340F707B34A
:200F7800FCF42A230180006F000017B780078713FDC4278340F707B3FCF42A23FD442783B9
:200F800006078E63FC442783FD44270300E7F663FC442783FCF42A23FCC427830387871309
:200F8800FDC4278300F707B3FD44260300078593FD0425034C0030EFFD042703FD442783FA
:200F900000F707B3FCF42823FC442703FD44278340F707B3FCF42223FDC42703FD44278304
:200F980000F707B37FF7F713FCC4278302E7A623FC442783F2F04EE30080006F00000013ED
:200FA000FD042703FC84278304F71C63FC042703000047B700F777B3040798630000001300
:200FA800FCC427830287A783FD84270300F71C63FCC427830247A703FCC427830047A783B3
:200FB000FEF760E3FCC427830287A783FD84270302F70063FC442783ECF04CE30180006FE0
:200FB800000000130100006F000000130080006F00000013FD042703FC84278306F70463C8
:200FC000008007933007B7F3FEF42623FEC42783FEF42023FCC427830207A7830017E7138C
:200FC800FCC4278302E7A023FCC427830207A783FEF42223FCC427830007A7830047879323
:200FD00000078713FE44278300F72023FE042783FEF42423FE8427830087F7933007A073CE
:200FD80000000013FD042703FC84278300F70A63FD042703FC84278340F707B30200006F76
:200FE000FC042703000047B700F777B300078663FF5007930080006FFFB0079300078513F8
:200FE80003C12083038124030401011300008067FC01011302112E2302812C230401041374
:200FF000FCA42623FCB42423FCC42223FCD42023FC042823FC842783FCF42C230EC0006FF8
:200FF800FCC427830307A783FCF42E23FCC427830347A783FCF42823FDC42703FD0427834B
:2010000000F77E63FD042703FDC4278340F707B3FFF78793FCF42A230340006FFD042783C7
:2010080000078E63000017B780078713FDC4278340F707B3FCF42A230140006F7FF007130F
:20101000FDC4278340F707B3FCF42A23FD44278308078263FC442783FD44270300E7F663B3
:20101800FC442783FCF42A23FCC42703000017B78387879300F70733FDC4278300F707B368
:20102000FD442603FC84258300078513268030EFFC842703FD44278300F707B3FCF424233D
:20102800FC442703FD44278340F707B3FCF42223FDC42703FD44278300F707B37FF7F71326
:20103000FCC4278302E7A823FC442783F0F04AE30080006F00000013008007933007B7F38E
:20103800FEF42623FEC42783FEF42023FCC427830207A7830027E713FCC4278302E7A023E8
:20104000FCC427830207A783FEF42223FCC427830007A7830047879300078713FE44278333
:2010480000F72023FE042783FEF42423FE8427830087F7933007A07300000013FC442783E5
:2010500004F05463FC042703000047B700F777B30407926300000013FCC427830347A7839B
:20105800FD04270300F71C63FCC427830247A703FCC427830047A783FEF760E3FCC42783FD
:201060000247A78300079C63FC442783F2F04EE30100006F000000130080006F0000001375
:20106800FC842703FD84278300F70A63FC842703FD84278340F707B30200006FFC042703CE
:20107000000047B700F777B300078663FF5007930080006FFFB007930007851303C120832A
:20107800038124030401011300008067FC01011302812E2304010413FCA42623FCB42423CC
:20108000FCC42223FCD420230000071300000793FEE42423FEF42623000317B7D707A78347
:2010880012078263FCC4278310078A63FCC42783FC44270300E7A823FCC42783FC042703C2
:2010900000E7AA23008007933007B7F3FEF42223FE442783FCF42A23000317B7D787A70358
:20109800D7C7A783FEE42423FEF42623FC8427830007881300000893FE842603FEC426838F
:2010A00000C80733000705930105B5B300D887B300F586B300068793000706130007869381
:2010A800001005130000059300A607330007081300C8383300B687B300F806B30006879372
:2010B000FCC4268300E6A42300F6A623FCC427830002F73712870713FCE42E23FEF4202398
:2010B800FE042783FDC4270300E7A223FDC427830007A703FE04278300E7A023FDC42783F8
:2010C0000007A783FE04270300E7A223FDC42783FE04270300E7A02300000013FD442783C8
:2010C800FCF42C23FD8427830087F7933007A07300000013000007930100006FFEA00793EE
:2010D0000080006FF7A007930007851303C124030401011300008067FE01011300812E2371
:2010D80002010413FE0426230180006FFEC427830817A00FFEC4278302078793FEF426239F
:2010E000FEC42703000017B7FEF762E3000000130000001301C124030201011300008067EF
:2010E800FE01011300812E2302010413FEA42623FEB42423FEC42223FE4427830007851373
:2010F00001C124030201011300008067FE01011300112E2300812C2302010413FEA42623AF
:2010F8000002F7B711878593FEC42503068000EF000507930007851301C1208301812403CD
:201100000201011300008067FF0101130011262300812423010104130002F7B71247A7834F
:2011080000078C630002F7B71247A783000780E70005079300C0006F000317B7DB87879315
:201110000007851300C12083008124030101011300008067FD0101130211262302812423DF
:2011180003010413FCA42E23FCB42C23FDC4278300078863FDC427830087A78300079E632B
:20112000F89FF0EF000507130160079300F72023FEA007930540006FFDC42783FD842703E3
:20112800FEE42423FEF42623FEC42783FE84270300E7A223FE8427830007A703FEC4278336
:2011300000E7A023FE8427830007A783FEC4270300E7A223FE842783FEC4270300E7A0233E
:2011380000000013000007930007851302C12083028124030301011300008067FE01011329
:2011400000112E2300812C23020104130002B7B754478793FEF4262301C0006FFEC4278347
:201148000007A783000780E7FEC42783FFC78793FEF42623FEC427030002B7B75407879390
:20115000FCF77EE3000000130000001301C12083018124030201011300008067FE010113E6
:2011580000112E2300812C23020104130002B7B754478793FEF4262301C0006FFEC427832F
:201160000007A783000780E7FEC42783FFC78793FEF42623FEC427030002B7B754878793F8
:20116800FCF77EE3000000130000001301C12083018124030201011300008067FF010113CD
:2011700000812623010104130000100F0000001300C124030101011300008067FD01011353
:20117800021126230281242303010413FEA42623FEB42423FEC42223FED42023FCE42E23E5
:20118000FDC42703FE042683FE442603FE842583FEC4250301C000EF00050793000785134C
:2011880002C12083028124030301011300008067FA01011304812E2306010413FAA42E2346
:20119000FAB42C23FAC42A23FAD42823FAE42623FEA00793FCF42223FB842783FCF424232A
:20119800FC84270300F0079312E7C863008007933007B7F3FCF42823FD042783FCF42623C5
:2011A000000317B7DCC78713FC8427830037979300F707B3FB44270300E7A023000317B701
:2011A800DCC78713FC8427830037979300F707B3FB04270300E7A223FB44278306078263FE
:2011B000FC842783FBC42703FCE42A23FCF42C23FD84270300F0079300E7E863FD8427830E
:2011B800010787930080006FFFF00793FCF42E23FDC427830007D663FDC427830800006FAF
:2011C000FDC42783FCF42C23FD8427830010071300F717B33047A073000007930600006FB6
:2011C800FC842783FBC42703FEE42023FEF42223FE44270300F0079300E7E863FE44278384
:2011D000010787930080006FFFF00793FEF42423FE8427830007D663FE8427830200006F23
:2011D800FE842783FEF42223FE4427830010071300F717B33047B07300000793FCF4222354
:2011E000FCC42783FEF42623FEC427830087F7933007A07300000013FC44278300078513E7
:2011E80005C124030601011300008067FD010113021126230281242303010413FCA42E23B4
:2011F000FCB42C23FCC42A23FCD42823FD042603FD442583FD8425030A1060EFFEA42623A8
:2011F800FEC427830807C8630002E7B75E078693FEC42703000707930017979300E787B324
:201200000027979300F687B30007A703FDC4278300E7A0230002E7B75E078693FEC427037D
:20120800000707930017979300E787B30027979300F687B30047A703FDC4278300E7A2233A
:201210000002E7B75E078693FEC42703000707930017979300E787B30027979300F687B330
:201218000087A703FDC4278300E7A423FEC42503090000EF0000001302C120830281240367
:201220000301011300008067FE01011300112E2300812C2302010413FEA42623FEB424236C
:20122800FEC422231FF0069300100613FEC425830002E7B75EC78513EF5FF0EF1FF0069332
:2012300000000613FE8425830002E7B75E078513EDDFF0EF1FF0069300100613FE44258358
:201238000002E7B75F878513EC5FF0EF0000001301C120830181240302010113000080672F
:20124000FE01011300812E2302010413FEA42623FEC427030020079304E7D6630002E7B73A
:201248005E078693FEC42703000707930017979300E787B30027979300F687B30007A423CA
:201250000002E7B75E078693FEC42703000707930017979300E787B30027979300F687B3F0
:201258000007A0230000001301C124030201011300008067FD0101130281262303010413B9
:20126000FCA42E23008007933007B7F3FEF42623FEC42783FEF42023FDC42783FEF4242302
:20126800FE8427830007A783FE8427030047270300E7A223FE8427830047A783FE842703F7
:201270000007270300E7A023FE842783FE84270300E7A223FE842783FE84270300E7A0237D
:2012780000000013FE042783FEF42223FE4427830087F7933007A0730000001300000013F3
:2012800002C124030301011300008067FE01011300112E2300812C2301212A230131282334
:20128800020104130002F7B7128787930007A783FEF42223000317B7D787A703D7C7A783C0
:20129000001005130000059300A706330006081300E8383300B786B300D807B30007869388
:201298000006071300068793000316B7D6E6AC23D6F6AE230C80006FFE4427830007A783E6
:2012A000FEF42423FE4427830087A60300C7A683000317B7D787A703D7C7A78300068513AA
:2012A8000007859308A5E863000685130007859300B51863000606930007079306D7EC63B6
:2012B000FE4427830107A783FE4427030147270300070513000780E7FEA42623FEC427833E
:2012B80000079863FE442503E8DFF0EF0480006FFE4427830087A70300C7A783FEC4268398
:2012C0000006891300000993012706330006059300E5B5B3013786B300D587B300078693E4
:2012C8000006071300068793FE44268300E6A42300F6A623FE842783FEF42223FE442703A0
:2012D0000002F7B712878793F2F718E3000000130000001301C12083018124030141290315
:2012D800010129830201011300008067FF0101130081262301010413FFF007933047B07330
:2012E0000000001300C124030101011300008067FF010113001126230081242301010413A7
:2012E8000AC000EF0005071300058793000316B7D8E6A023D8F6A2230000079300078513D2
:2012F00000C12083008124030101011300008067FF01011300112623008124230101041386
:2012F80006C000EF0005061300058693000317B7D807A503D847A58340A607330007081304
:201300000106383340B687B3410786B300068793000705130007859300C120830081240340
:201308000101011300008067FF010113008126230101041302FAF7B708078793000785135F
:2013100000C124030101011300008067FE01011300812E23020104130009033700C30313BD
:2013180000032303FE642423000903370083031300032303FE6426230009033700C3031317
:2013200000032303FE842E03FC6E18E3FE842303000308130000089300081793000007133F
:20132800FEC42803000806130000069300C7653300D7E5B3000507130005879300070513D3
:201330000007859301C124030201011300008067FE01011300812E2302010413FEA42423AF
:20133800FEB42623000906B700468693FFF0061300C6A023000906B7FE84260300C6A023EA
:20134000FEC426830006D71300000793000906B7004686930007079300F6A0230000001306
:2013480001C124030201011300008067FE01011300812E2302010413000903370003230333
:20135000FE642423000903370043031300032303FE642623FEC423030003081300000893C3
:201358000008179300000713FE842803000806130000069300C7653300D7E5B30005071355
:2013600000058793000705130007859301C124030201011300008067FC01011302112E23B4
:2013680002812C2304010413FCA42623FCB42423FCC42223E99FF0EFFEA42423FEB4262347
:20137000FE842703FEC427830000C537350505130000059300A706330006081300E838330B
:2013780000B786B300D807B30007869300060713000687930007051300078593ED5FF0EF0A
:20138000008007933007B7F3FEF42223FE442783FCF42E23BF9FF0EFFDC42783FEF4202311
:20138800FE0427830087F7933007A073000000130000001303C120830381240304010113ED
:2013900000008067FF010113001126230081242301010413FFF00513FFF00593E75FF0EF54
:20139800080007933047A073000000130000001300C12083008124030101011300008067DA
:2013A0000005059300000693000006130000051317C0906FFE010113000105930002A51786
:2013A8002945250300112E23294060EFFFF0079302F50063004127830001250300F5053351
:2013B0000081278300F5053300C1278300F5053301C120830201011300008067FF010113B6
:2013B80000000593008124230011262300050413204090EF000285174385250303C5278360
:2013C00000078463000780E700040513434250EFFF010113001126230081242300912223C5
:2013C800012120230C058A63000584130005049300050663038527830E07806306442783DE
:2013D00000C417030017F7930A0796632007771310070063000405930004851313C000EF4F
:2013D80002C427830005091300078A6301C4258300048513000780E70A054C6300C457839D
:2013E0000807F7930A079E630304258300058C630404079300F58663000485136A9000EF9A
:2013E80002042823044425830005886300048513695000EF040422232CD000EF0644278344
:2013F000000416230017F7930A078A6305842503035010EF2BD000EF00C120830081240308
:2013F8000041248300090513000129030101011300008067F60710E30000091300C1208332
:20140000008124030041248300090513000129030101011300008067760000EF0644278398
:2014080000C417030017F793FC0796E3F21FF06F00C45783FFF009130807F793F40786E3B3
:2014100001042583000485135FD000EFF3DFF06F058425037B8010EF00C41783EE079CE3A7
:20141800064427830017F793F80798E305842503000009137B0010EFF85FF06F05842503F7
:201420007A4010EFF49FF06F000505930002A5170A452503E7DFF06F00C59783FE01011318
:2014280000812C230131262300112E2300912A23012128230087F7130005841300050993DE
:201430001207126300001737800707130045A68300E7E73300E5962318D0586302842803BE
:201438000E08026300C7D7930009A4830017F7930009A02301C425831807906300000613B3
:201440000010069300098513000800E7FFF00793000506131AF5006300C4170302842803AB
:2014480001C425830047771300070E63004427030304278340E606330007866303C42783EF
:2014500040F606330000069300098513000800E7FFF0079312F516630009A68301D007933E
:201458000CD7EE63DFC00737FFE7071340D757330017771300C417830C071463010426030B
:20146000FFFFF7377FF7071300E7F73300C7D79300E416230004222300C420230017F79360
:2014680012079C63030425830099A02300058C630404079300F5866300098513489000EF65
:20147000020428230000051301C1208301812403014124830101290300C12983020101134A
:20147800000080670105A903FC090EE30005A4830037F7930125A023412484B30000071339
:20148000000794630145A70300E4242300904863FB5FF06F00A90933FA9056E302442783A7
:2014880001C42583000486930009061300098513000780E740A484B3FCA04EE300C4178343
:201490000407E79301C1208300F4162301812403014124830101290300C12983FFF00513F1
:20149800020101130000806703C5A683E6D048E300000513F55FF06F05042603EA9FF06F7F
:2014A00000C4178301042683FFFFF7377FF7071300E7F73300C7D79300E4162300042223BC
:2014A80000D420230017F793EE078EE304A42823EF5FF06F0009A783E60780E301D00713F8
:2014B00000E7866301600713F6E79AE30099A02300000513EF5FF06FEC0696E304A42823F8
:2014B800EC5FF06FFF010113008124230091222300112623012120230005049300058413C1
:2014C00000050663038527830607846300C4178300000913040780630644270300177713FB
:2014C800000716632007F793040788630004059300048513D65FF0EF06442783000509137C
:2014D0000017F7930007986300C457832007F7930407886300C12083008124030041248320
:2014D80000090513000129030101011300008067408000EFF99FF06F05842503490010EF0A
:2014E0000004059300048513D11FF0EF06442783000509130017F793FA079EE3FADFF06F75
:2014E80005842503480010EF00C12083008124030041248300090513000129030101011394
:2014F000000080670A050C63FF010113008124230121202300112623009122230002A91744
:2014F800D54929030005041300090663038927830607846300C417830000049304078063EF
:201500000644270300177713000716632007F79304078A630004059300090513C7DFF0EF4B
:2015080006442783000504930017F7930007986300C457832007F79302078C6300C12083E5
:201510000081240300012903000485130041248301010113000080670009051331C000EF64
:20151800F95FF06F058425033A4010EFFA9FF06F058425033B0010EFFC5FF06F0000059799
:20152000E685859300028517EA8525032B80106F001007931AC7DC63FE01011300812C231C
:2015280001212823014124230151222300112E2300912A2301312623016120230006091394
:2015300000050A9300058A1300068413000506630385278310078463064427830017F79387
:201538000E078263FFF90913000A09930240006F000427834097073300E42223009787B375
:2015400000F42023009989B35ED010EF0E0902630044278300040593000A851300079863A8
:201548004D8020EF0E051A630044278300042B0300A00593000904930127F4630007849382
:2015500000048613000B05134E9010EF00050793004427030009851300048613000B0593F0
:2015580040990933F80786E300178793416784B34097073300F420230004861300E42223D8
:20156000575010EF06442783009984B3000480230017F79306078663000A051301C120833C
:2015680001812403014124830101290300C1298300812A0300412A8300012B030201011354
:201570000000806700C457832007F793F0079CE305842503238010EFF0DFF06F19C000EF66
:20157800064427830017F793EE079EE3FD9FF06F06442783000980230017F793F8079EE38C
:2015800000C457832007F793F80798E305842503214010EFF85FF06F06442783FD499CE302
:201588000017F7930007986300C457832007F7930007866300000513F65FF06F05842503E4
:201590001E4010EF00000513F55FF06F00000513000080670006069300058613000505933A
:201598000002A517AD052503E29FF06F000005978A4585930D00106F064527830017F79316
:2015A0000007986300C557832007F79300078663000005130000806705852503FF01011324
:2015A80000112623168010EF00C12083000005130101011300008067064527830017F79325
:2015B0000007986300C557832007F79300078663000005130000806705852503FF01011314
:2015B80000112623140010EF00C12083000005130101011300008067FF0101130091222343
:2015C00006800793FFF5849302F484B3012120230005891300812423001126230744859328
:2015C800370010EF000504130205006300C50513000420230124222300A4242306848613AB
:2015D00000000593555010EF00C1208300040513008124030041248300012903010101136C
:2015D80000008067FFFFF5977AC5859300028517BC0525037D10006FFE01011300912A23B7
:2015E000000504930002B5176245051300112E2300812C230121282301312623014124231F
:2015E80001512223068010EF0384A783140798630044A40300000717EB87071302E4AE23B4
:2015F0002EC48793003007132EE4A2232EF4A4232E04A0230040079300F426230080061320
:2015F80000000593000420230004222300042423060422230004282300042A2300042C231E
:2016000005C40513495010EF00002A975FCA8A9300002A17658A0A13000029976D8989932B
:2016080000002917748909130584051300842E2303542023034422230334242303242623DF
:201610007BD000EF0084A403000107B70087879300F4262300800613000005930004202340
:201618000004222300042423060422230004282300042A2300042C2305C4051341D010EFEB
:201620000584051300842E2303542023034422230334242303242623765000EF00C4A40300
:20162800000207B70127879300F42623008006130000059300042023000422230004242357
:20163000060422230004282300042A2300042C2305C405133C5010EF0584051300842E2376
:201638000354202303442223033424230324262370D000EF0010079302F4AC230181240337
:2016400001C12083014124830101290300C1298300812A0300412A830002B51749050513D1
:20164800020101137010006FFE01011301312623000509930002B5174705051301212823AE
:2016500000112E2300812C2300912A236C1000EF000289179DC92903038927830C0780639F
:201658002E090913FFF004930049278300892403FFF787930007D8630940006F068404134B
:201660000897866300C41703FFF78793FE0718E3FFFF07B70017879300F426230584051329
:2016680006042223659000EF0002B5173FC50513675000EF00800613000420230004242374
:20167000000422230004282300042A2300042C230000059305C405132C1010EF0204282319
:2016780002042A23040422230404242301C120830004051301812403014124830101290322
:2016800000C1298302010113000080670009240300040C6300040913F51FF06F0009051388
:20168800D59FF0EFF3DFF06F1AC0059300098513060010EF000504130205086300C505133B
:20169000004007930004202300F4222300A424231A00061300000593241010EF008920232B
:2016980000040913F05FF06F000920230002B517338505135B1000EF00C0079300F9A0230A
:2016A000F6DFF06F0002B517320505135810006F0002B5173145051358D0006F0002B51741
:2016A80030C505135690006F0002B517300505135750006FFF0101130002B5172EC50513A2
:2016B00000112623549000EF00C12083000295176645250300000597BA458593010101133F
:2016B8003C10006FFF01011300000597BD0585930002951764052503001126233A5000EFBB
:2016C00000C120830002B5172A050513010101135150006FFD0101130006071301312E23B6
:2016C80000C1061300058993000705930321202302112623028124230291222300050913E2
:2016D0007BC080EF120502630005049300090513DD9FF0EF000504131005086300C1260336
:2016D800000985931B60069300090513221010EF000509930E054063064427830017F7937F
:2016E0000007986300C457832007F7930A07886301049793010999930107D7930137E7B3F4
:2016E80000F42623000027972607879302F42023000027972B87879302F4222300002797E4
:2016F0003347879302F42423000027973A07879300842E2302F426231004F49302049E633A
:2016F800064427830017F7930007986300C457832007F79304078A6302C120830004051372
:2017000002812403024124830201290301C1298303010113000080670020069300000613C7
:201708000004059300090513524000EF064427830017F793FC0792E3FB5FF06F058425030C
:201710003CD000EFF4DFF06F058425033D9000EFFA9FF06FE31FF0EF058425030004162358
:201718003A5000EFE2DFF0EF00000413F8DFF06F0005861300050593000295174B8525036A
:20172000E95FF06FFC01011302C1031302D126230003069300112E2302E1282302F12A2390
:2017280003012C2303112E2300612623498050EF01C120830401011300008067FC010113C1
:201730000281031302C1242302D12623000586130003069300050593000295174585250363
:2017380000112E2302E1282302F12A2303012C2303112E230061262344C050EF01C12083B7
:201740000401011300008067FE01011300812C2300912A2301212823013126230141242357
:201748000005899300112E2300029A17E60A0A1300050913041010EF008A2703000017B788
:20175000FEF7841300472483FFC4F493008484334134043300C45413FFF4041300C41413AE
:2017580000F44E630000059300090513659010EF008A2783009787B302F508630009051397
:20176000001010EF01C1208301812403014124830101290300C1298300812A030000051302
:201768000201011300008067408005B300090513615010EFFFF0079304F50A630002B7175B
:201770000907071300072783008A2683408484B30014E493408787B3000905130096A22348
:2017780000F7202379C010EF01C1208301812403014124830101290300C1298300812A039F
:2017800000100513020101130000806700000593000905135B1010EF008A270300F00693C3
:2017880040E507B3F4F6DCE38241A68340D505330017E7930002B69700A6AC2300F72223EF
:20179000F3DFF06F18058263FF0101130081242300912223000584130005049300112623C2
:20179800714010EFFFC42583FF84071300029517D1C50513FFE5F79300F706330046268390
:2017A00000852803FFC6F6931AC8026300D622230015F59300D608330A059063FF84230370
:2017A8000048258300029897CEC888934067073300872803006787B30015F59315180263EC
:2017B00000C7230300682623010324231A0588630017E69300D7222300F620231FF0069399
:2017B80006F6EC63FF87F693008686930045258300D506B30006A6030057D8130010079302
:2017C000010797B300B7E7B3FF86859300B7262300C7242300F5222300E6A02300E62623A9
:2017C8000081240300C1208300048513004124830101011364C0106F004825830015F5932B
:2017D000080586630017E693FED42E2300F620231FF00693F8F6F8E30097D693004006134D
:2017D80012D662630067D69303968593038686130035959300B505B30005A683FF8585930D
:2017E00000D598631580006F0086A68300D588630046A603FFC67613FEC7E8E300C6A583EB
:2017E80000B7262300D724230081240300C1208300E5A423000485130041248300E6A623D8
:2017F000010101135BC0106F0000806700D787B300029897BC088893008626830D168E63DE
:2017F80000C628030017E59300F706330106A62300D8242300B7222300F62023EE1FF06F91
:2018000012059E630086258300C6260300F686B30016E79300C5A62300B6242300F722230D
:2018080000D7073300D72023EF9FF06F0015F59300D786B302059063FF84258340B70733A5
:2018100000C727830087260300B686B300F6262300C7A4230016E79300F7222300E52423E3
:201818008281A783EAF6EEE30002B597D4C5A58300048513C95FF0EFEA9FF06F00D787B327
:20182000F59FF06F0140061302D670630540061306D6646300C7D69306F6859306E68613E6
:2018280000359593ED1FF06F05C6859305B6861300359593EC1FF06F00E52A2300E5282378
:201830000017E693011726230117242300D7222300F7073300F72023E49FF06F004528036F
:20183800402656130010079300C797B30107E7B300F52223EADFF06F1540061300D66C63EF
:2018400000F7D693078685930776861300359593E65FF06F5540061300D66C630127D69388
:2018480007D6859307C6861300359593E49FF06F3F80059307E00613E3DFF06F0017E693DE
:2018500000D7222300F62023DD9FF06F01C0006F0006069300058613000505930002951790
:20185800FD4525030040006FF701011308812423089122230921202307412C230811262337
:2018600007312E2307512A230761282307712623000504930005841300060A1300068913C9
:201868000005066303852783060784630644270300C4178300177713000716632007F713A8
:201870002A0704631087F7931080071326E7806302842A83420A8E630010079314F9066375
:20187800FFD9799302098A63064427830160071300E4A0230017F7930007986300C457831D
:201880002007F79336078063FFF005130D80006FD68FF0EFF99FF06F0104270300000B936C
:2018880016070E6300C41703000017B781A7879300F777B302079463400777931A07986336
:2018900000002797CB07879316FA8263000017B78007879300F7673300E4162300040593E0
:2018980000048513880FF0EF38051C6301C4258300090693000A061300048513000A80E723
:2018A000FFF0079336F50E630304258300058C630404079300F5866300048513BA9FF0EF0C
:2018A8000204282300C4578301042683FFFFF7377DF7071300E7F7B300D4202300042223D8
:2018B00000F41623008006130000059305C405131C8010EF064427830017F79302078A63B3
:2018B8000000051308C1208308812403084124830801290307C1298307812A0307412A8399
:2018C00007012B0306C12B83090101130000806700C457832007F793FC0794E305842503DE
:2018C800504000EFFBDFF06F0004059300048513FB5FE0EF00C4178300C7D7130017771337
:2018D0000E071E6301C42583001006930000061300048513000A80E7FFF0079300050993FC
:2018D8002AF5006300C41783010427030047F6930C068E63004427830304268340F989B3FB
:2018E0000006866303C4268340D989B300090B93013A0A3300000913E80716E30004059375
:2018E80000048513484000EFE7DFF06F00E41583E805CEE30081061300048513284000EF01
:2018F0001E051A6300C127030000F7B7000086B700E7F7B300C41703E6D79AE340076713F8
:2018F8004000079304F4262300E41623000A0B1314091863080B926300C4578300001737E4
:2019000000E7F7B3180788630504250300442783030425830007871340F509B314058E63C2
:2019080003C4268340D989B30600006F0004059300048513EB1FE0EFD99FF06F0047F693CD
:201910000504298301042703F20696E30087F793F2078EE300042783F2078AE340E787B372
:2019180000F989B3F29FF06F058425033A0000EF00C41783D51FF06F030425830E058C634E
:201920000044278303C42683038427030104260300F987B340C7073340E787B300D7073384
:2019280000FB466300E786B310DB6A6304C4298301C4258300000693413009B30169F9B366
:201930000009861300048513000A80E7FFF00793D8F506E301042783030425830004222302
:2019380000F4202300058C630404079300F5866300048513951FF0EF0204282300C45783C6
:20194000413B0BB3FDF7F79300F41623DB3B0CE300040593000485134E0010EFD40510E34C
:2019480000442783D377ECE300042703417787B300F42223017707B300F42023D89FF06FE0
:2019500000E4158300810613000485130F4000EFD00516E301812B03016A0B33F00B9EE3E4
:20195800E99FF06F058425032BC000EFFFF00513D75FF06F00442703000426830104260318
:201960000000059340C686B340D987B300D70733F11FF06F01C4258300100693000006138E
:2019680000048513000A80E7FFF00793E6F510E3CADFF06F00C41703C95FF06F40FB07B399
:2019700000F6063340F7073300C4202300E4222300058C630404079300F586630004851377
:20197800865FF0EF0204282300C457830080061300000593FDF7F79300F41623CD1FF06F75
:20198000064427830017F793C00790E3BF1FF06F0644278301D0071300E4A0230017F79314
:20198800BE0794E3BD9FF06F00060693000586130005059300029517AFC52503B2DFF06F34
:20199000FF01011300058713008124230006059300050413000705130002A7977607A02363
:2019980000112623569230EFFFF0079300F50A6300C12083008124030101011300008067DA
:2019A0000002A7977387A783FE0784E300C1208300F4202300812403010101130000806717
:2019A800FE010113012128230131262301412423015122230161202300112E2300812C232D
:2019B00000912A2300058B132E050A9300000A1300100993FFF00913004AA483008AA40350
:2019B800FFF484930204C66300C45783FFF4849300F9FC6300E4178300040513012786632B
:2019C000000B00E700AA6A3306840413FD249EE3000AAA83FC0A92E301C1208301812403CB
:2019C800014124830101290300C1298300412A8300012B03000A051300812A030201011377
:2019D00000008067FD0101130321202301312E2301412C2301512A2301612823017126237C
:2019D80002112623028124230291222300050A9300058B932E050B1300000A130010099312
:2019E000FFF00913004B2483008B2403FFF484930204C86300C45783FFF4849300F9FE63FB
:2019E80000E4178300040593000A851301278663000B80E700AA6A3306840413FD249CE318
:2019F000000B2B03FC0B10E302C1208302812403024124830201290301C1298301412A831E
:2019F80001012B0300C12B83000A051301812A030301011300008067000080670000806792
:201A000000008067000080670000806700008067001005130000806700100513000080670C
:201A0800000080670000806700C59783F801011306812C2306112E2306912A23072128236F
:201A100007312623074124230027F7130005841302070C630435879300F5A02300F5A82396
:201A18000010079300F5AA2307C1208307812403074124830701290306C1298306812A03DE
:201A2000080101130000806700E59583000504930805CC6300810613DA9FF0EF0805446327
:201A280000C127830000F93700001A3700F97933FFFFE7B700F909330019391340000993FB
:201A3000800A0A1300098593000485131C4000EF00C4178306050E63FFFFF717D9470713C7
:201A380002E4AE230807E79300F4162300A4202300A4282301342A23080918630147E7B35B
:201A400007C1208300F4162307812403074124830701290306C1298306812A0308010113D8
